:020000040000FA
:0600000023EF01F01200E5
:020006000000F8
:08000800D9CFE6FFE1CFD9FFDB
:10001000E652DF6A0A0EDF5C07E2320EE66E31EC72
:1000200001F0E552DF2AF6D7E552E552E7CFD9FFD6
:1000300012004B0EE66E03EC01F0E55200D0120008
:10004000D9CFE6FFE1CFD9FFE652DF6A140EDF5CBD
:1000500007E2190EE66E03EC01F0E552DF2AF6D74F
:1000600000D0E552E552E7CFD9FF1200D9CFE6FF25
:10007000E1CFD9FFE652DF6AFE0EDB50D880DF54B5
:1000800007E3050EE66E03EC01F0E552DF2AF4D734
:1000900000D0E552E552E7CFD9FF1200D9CFE6FFF5
:1000A000E1CFD9FF020EE126DF6AFE0EDB50DF5CF6
:1000B00013E2010EDB6A0A0EF36E010EDBCFF4FFD2
:1000C000F350F45C07E2640EE66ED0DFE552010EF9
:1000D000DB2AF1D7DF2AE9D7020EE15C02E2E16A0E
:0C00E000E552E16EE552E7CFD9FF1200B7
:0400EC00060EF66E98
:1000F000000EF76E000EF86E00010900F550656FF6
:100100000900F550666F03E1656701D03DD0090035
:10011000F550606F0900F550616F0900F550626F8E
:1001200009000900F550E96E0900F550EA6E090072
:1001300009000900F550636F0900F550646F09006C
:100140000900F6CF67F0F7CF68F0F8CF69F060C02C
:10015000F6FF61C0F7FF62C0F8FF0001635302E1E0
:10016000645307E00900F550EE6E6307F8E2640798
:10017000F9D767C0F6FF68C0F7FF69C0F8FF000154
:0A0180006507000E665BBFD7120092
:06018A00946A800E826EF3
:10019000640EE66E36EC00F0E552C00E826E640E20
:1001A000E66E36EC00F0E552400E826E640EE66EAE
:1001B00036EC00F0E552420E826E640EE66E36ECCE
:1001C00000F0E552020E826E640EE66E36EC00F030
:1001D000E552030E826E640EE66E36EC00F0E552D8
:1001E000010E826E640EE66E36EC00F0E552810E72
:1001F000826E640EE66E36EC00F0E552C7D7F36A05
:06020000F46A00D01200B8
:0A020600FF0EE350026E480E01D017
:100210004C0EE76EE72EFED7E76AE72EFED7022EDA
:06022000F7D700001200F8
:0A022600000EF36E00EE00F0080E6B
:1002300001D81200EA6002D0EE6AFCD7F350E96000
:060240001200EE6AFCD77B
:0A02460013EE00F023EE00F0F86A5A
:10025000019C76EC00F03CEC01F0C5EC00F0FBD723
:0202600012008A
:0E026200FF0EE350E84E1200000000D000D066
:0802700000D0E82EFAD71200BD
:02027800120072
:020000040030CA
:010001000CF2
:0100020019E4
:010003001EDE
:010005008179
:010006008079
:010008000FE8
:00000001FF
