:04000000C3EF3FF01B
:107F86000001DDEF3FF0FA0E00F0E82EFDD7012EDE
:107F9600FAD71200036E000E046E035007D0036E6C
:107FA600050E016E0350C6EC3FF0042A0450026031
:107FB600F6D71200000E946EC00E826E056E640E29
:107FC600026E0550CDEC3FF0420E826E056E640ED9
:107FD600026E0550CDEC3FF0030E826E056E640E08
:107FE600026E0550CDEC3FF0810E826E056E640E7A
:0A7FF600026E0550CDEC3FF0DFD71E
:020000040020DA
:08000000FFFFFFFFFFFFFFFF00
:020000040030CA
:0E000000040C191EFF8081FF0FC00FE00F409F
:00000001FF
