:04000000BDEF3FF021
:107F7A000001D5EF3FF0016EFA0E00F0E82EFDD7B2
:107F8A00012EFAD71200026E000E036E04D0050EFF
:107F9A00C0EC3FF0032A0350025CD8A01200F7D7C6
:107FAA00000E946E800E826E640EC8EC3FF0C00E16
:107FBA00826E640EC8EC3FF0400E826E640EC8EC0E
:107FCA003FF0420E826E640EC8EC3FF0020E826EE3
:107FDA00640EC8EC3FF0030E826E640EC8EC3FF0EC
:107FEA00010E826E640EC8EC3FF0810E826E640E42
:067FFA00C8EC3FF0D7D7F0
:020000040020DA
:08000000FFFFFFFFFFFFFFFF00
:020000040030CA
:0E000000040C191EFF8081FF0FC00FE00F409F
:00000001FF
